:10000000972100009381418917410000130181FF6E
:10001000330401006F0080021301C1FF232081001F
:1000200013044100730000006F0000001301C1FFC2
:1000300023208100130441006F000000130181FFA1
:10004000232211002320810013048100EFF0DFFC44
:10005000930700001385070083204100032401005B
:100060001301810067800000140000000000000000
:10007000037A5200017C01011B0D02070100000000
:10008000100000001C00000078FFFFFF18000000B7
:04009000000000006C
:00000001FF
